:100000000C942A000C9447000C9447000C94470071
:100010000C9447000C9447000C9447000C94470044
:100020000C9447000C9447000C9447000C94470034
:100030000C9447000C9447000C9447000C94470024
:100040000C9447000C9447000C9447000C94470014
:100050000C94470011241FBECFE5D8E0DEBFCDBF12
:1000600011E0A0E6B0E0E4E9FEE002C005900D92E8
:10007000A434B107D9F721E0A4E4B1E001C01D9296
:10008000A635B207E1F70E946F050C9448070C945F
:1000900000001F93CF93DF93C0E0D0E01AE00E94EE
:1000A0005E038835E1F390ED980F9A3060F41C9F61
:1000B00090011D9F300D1124E901C80FD11DE0975B
:1000C0000E946D04ECCF833619F4C3E6D0E0E7CF8D
:1000D0008D3329F7CE01DF91CF911F9108950E94B2
:1000E0005A0580914F018111B4C060E080E00E9408
:1000F000640580E690E00E946F0460E081E00E9469
:10010000640580E790E00E946F040E94490080939C
:100110005001813089F50E945A0580914C0181116E
:10012000E0CF60E080E00E94640582E890E00E94F9
:100130006F040E9449008093540180EF90E00E9478
:100140006F0460E081E00E94640582E890E00E9414
:100150006F046091540170E080E090E00E9482049E
:1001600080EF90E00E946F04809154018336A9F6DD
:1001700081E080934C01D1CF823071F50E945A0505
:1001800080914B018111ADCF60E080E00E94640559
:1001900082E890E00E946F040E944900809354011D
:1001A00080EF90E00E946F0460E081E00E946405AF
:1001B00087E890E00E946F04809154010E943E0500
:1001C00080EF90E00E946F04809154018336C1F665
:1001D00081E080934B01D4CF833071F50E945A05A2
:1001E00080914A0181117DCF60E080E00E9464052A
:1001F00082E890E00E946F040E94490080935401BD
:1002000080EF90E00E946F0460E081E00E9464054E
:100210008CE890E00E946F04809154010E940405D4
:1002200080EF90E00E946F04809154018336C1F604
:1002300081E080934A01D4CF833621F481E080931A
:100240004F014FCF0E945A0581E990E00E946F0450
:1002500048CF08951F93CF93DF93C0E0D0E00E9472
:100260005E03182F8835D9F380ED810F8A3060F452
:1002700094E0CC0FDD1F9A95E1F7C10FD11DE097F7
:10028000812F0E946D04EBCF8FEB810F843060F4DF
:1002900084E0CC0FDD1F8A95E1F7C10FD11DE797F0
:1002A000812F0E946D0405C0133619F4C3E6D0E017
:1002B000D6CF1D33A1F6CE01DF91CF911F910895C6
:1002C0000E945A0580914E018111B4C060E080E027
:1002D0000E9464058DE990E00E946F0460E081E077
:1002E0000E94640580E790E00E946F040E9449002C
:1002F00080935001813089F50E945A05809149010F
:100300008111E0CF60E080E00E94640587E890E022
:100310000E946F040E942A018093530180EF90E0B5
:100320000E946F0460E081E00E94640582E890E032
:100330000E946F046091530170E080E090E00E94A1
:10034000820480EF90E00E946F0480915301833615
:10035000A9F681E080934901D1CF823071F50E94E6
:100360005A05809148018111ADCF60E080E00E9484
:10037000640587E890E00E946F040E942A01809340
:10038000530183EF90E00E946F0460E081E00E94DF
:10039000640587E890E00E946F04809153010E94F9
:1003A0003E0583EF90E00E946F04809153018336F5
:1003B000C1F681E080934801D4CF833071F50E946B
:1003C0005A058091470181117DCF60E080E00E9455
:1003D000640587E890E00E946F040E942A018093E0
:1003E000530183EF90E00E946F0460E081E00E947F
:1003F00064058CE890E00E946F04809153010E9494
:10040000040583EF90E00E946F04809153018336CE
:10041000C1F681E080934701D4CF833621F481E097
:1004200080934E014FCF0E945A0581E990E00E94CF
:100430006F0448CF0895CF93DF93C0E0D0E00E94CF
:100440005E038835E1F390ED980F923040F4CC0FC5
:10045000DD1FC80FD11DE0970E946D04F0CF8336D9
:1004600019F4C3E6D0E0EBCF8D3349F7CE01DF912D
:10047000CF9108950E945A0580914D018111B4C019
:1004800060E080E00E9464058DEA90E00E946F04C5
:1004900060E081E00E94640580E790E00E946F04C4
:1004A0000E94490080935001813089F50E945A05CD
:1004B000809146018111E0CF60E080E00E946405F8
:1004C0008CE890E00E946F040E941B02809352010E
:1004D00080EF90E00E946F0460E081E00E9464057C
:1004E00082E890E00E946F046091520170E080E029
:1004F00090E00E94820480EF90E00E946F0480915F
:1005000052018336A9F681E080934601D1CF823033
:1005100071F50E945A05809145018111ADCF60E0CF
:1005200080E00E9464058CE890E00E946F040E94C5
:100530001B028093520180EF90E00E946F0460E004
:1005400081E00E94640587E890E00E946F0480913A
:1005500052010E943E0580EF90E00E946F0480915E
:1005600052018336C1F681E080934501D4CF8330B8
:1005700071F50E945A058091440181117DCF60E0A0
:1005800080E00E9464058CE890E00E946F040E9465
:100590001B028093520180EF90E00E946F0460E0A4
:1005A00081E00E9464058CE890E00E946F048091D5
:1005B00052010E94040580EF90E00E946F04809138
:1005C00052018336C1F681E080934401D4CF833653
:1005D00021F481E080934D014FCF0E945A0581E9BB
:1005E00090E00E946F0448CF0895809155018111D9
:1005F00032C060E00E9464058DEB90E00E946F04C1
:100600002FEF84E39CE0215080409040E1F700C050
:10061000000082EF90E00E946F0460E080E00E94A2
:10062000640584EC90E00E946F042FEF84E39CE06B
:10063000215080409040E1F700C0000084ED90E040
:100640000E946F042FEF84E39CE021508040904093
:10065000E1F700C0000060E080E00E9464058BEFDD
:1006600090E00E946F0460E081E00E94640580E7F2
:1006700090E00E946F040E9449008093510191E034
:1006800090935501813011F40C946F00823011F475
:100690000C946001833011F40C943A020895CF93C6
:1006A000DF93CFE2D1E061E089910E948D0681E085
:1006B000C333D807C1F7DF91CF9108959F92AF92CE
:1006C000BF92CF92DF92EF92FF920F931F93CF933F
:1006D000DF939FE2C92E91E0D92EC3E3D1E028E554
:1006E000F22EF601E1906F0160E08E2D0E948D06E2
:1006F0008BE2A82E81E0B82E00E010E0F501919089
:100700005F01892D0E947006811109C0FE01E00F72
:10071000F11FF080892D0E9470068823D9F30F5FA6
:100720001F4F0430110551F761E08E2D0E948D0698
:100730002496F1E0C334DF07A1F68F2DDF91CF912E
:100740001F910F91FF90EF90DF90CF90BF90AF90EF
:100750009F900895CF93C82F60E081E00E948D069E
:100760008BB381788BBB6C2F669568779BB38BB30B
:10077000692B0E94160761E082E00E948D068FECD3
:1007800097E00197F1F700C0000060E082E00E946E
:100790008D068FEC97E00197F1F700C000008BB356
:1007A00081788BBB98E0C99FB001112468779BB317
:1007B0008BB3692B0E94160761E082E00E948D06D0
:1007C0008FEC97E00197F1F700C0000060E082E055
:1007D0000E948D068FEC97E00197F1F700C00000B2
:1007E000CF910895CF93C82F61E081E00E948D06DC
:1007F0008BB383788BBB8C2F869588779BB3892BA3
:100800008BBB61E082E00E948D068FEC97E0019740
:10081000F1F700C0000060E082E00E948D068FECDE
:1008200097E00197F1F700C000008BB383788BBB92
:1008300028E0C29FC001112488779BB3892B8BBB12
:1008400061E082E00E948D068FEC97E00197F1F75E
:1008500000C0000060E082E00E948D068FEC97E00F
:100860000197F1F700C00000CF9108952FE788E3CA
:1008700091E0215080409040E1F700C0000082E00C
:100880000E94AA038FEC97E00197F1F700C00000E7
:1008900088E20E94AA038FEC97E00197F1F700C06D
:1008A00000008CE00E94AA038FEC97E00197F1F71B
:1008B00000C0000081E00E94AA038FE99FE0019739
:1008C000F1F700C0000086E00E94AA038FE99FE0D4
:1008D0000197F1F700C0000008950C94F2030F9304
:1008E0001F93CF938C01C0E0F801EC0FF11D8081C4
:1008F000882321F00E94F203CF5FF6CFCF911F91A2
:100900000F9108958F929F92AF92BF92EF92FF92B4
:100910001F93CF93DF93CDB7DEB760970FB6F894F0
:10092000DEBF0FBECDBF611571058105910591F444
:1009300080E360960FB6F894DEBF0FBECDBFDF91A7
:10094000CF911F91FF90EF90BF90AF909F908F90AD
:100950000C94F20310E03AE0832E912CA12CB12CE0
:10096000EE24E394F12CEC0EFD1EE10EF11CA5012A
:1009700094010E942607605DF70160831F5FB90143
:10098000CA01611571058105910551F7112341F0E7
:10099000FE01E10FF11D80810E94F2031150F6CF9C
:1009A00060960FB6F894DEBF0FBECDBFDF91CF913A
:1009B0001F91FF90EF90BF90AF909F908F90089500
:1009C0000F931F93CF93DF93082F80E30E94F203CE
:1009D00082E40E94F203C0E0D0E010E0C8010C2ED7
:1009E00001C0880F0A94EAF787FF02C081E301C0C3
:1009F00080E30E94F2032196C830D10579F7DF9198
:100A0000CF911F910F910895FF920F931F93CF9352
:100A1000DF93811107C0DF91CF911F910F91FF905C
:100A20000C94E004C82F80E30E94F20382E60E9447
:100A3000F20300E010E0F12CD0E0CE01002E01C066
:100A4000880F0A94EAF787FF06C081E30E94F20349
:100A5000FF24F39408C081E0F81204C080E30E94F0
:100A6000F20301C0F12C0F5F1F4F0830110529F769
:100A7000DF91CF911F910F91FF900895CF93C82FD1
:100A800080E30E94F20388E50E94F2038C2F829596
:100A90008F708A3010F4805D01C0895C0E94F2037F
:100AA0008C2F8F708A3010F4805D01C0895CCF91EB
:100AB0000C94F20381E00E94AA038FEC97E0019767
:100AC000F1F700C000000895811102C080E803C062
:100AD000813021F480EC860F0C94AA0308950E94C3
:100AE0005D060E9436040E944F030E94F502FDCF6E
:100AF000982F9695969596958770613009F441C028
:100B000020F0623009F489C00895913099F028F0FE
:100B10009230E9F0933041F108954AB321E030E09A
:100B2000B90102C0660F771F8A95E2F7CB01842BCB
:100B30008ABB089547B321E030E0B90102C0660FD7
:100B4000771F8A95E2F7CB01842B87BB089544B3C6
:100B500021E030E0B90102C0660F771F8A95E2F705
:100B6000CB01842B84BB089541B321E030E0B9016F
:100B700002C0660F771F8A95E2F7CB01842B81BBF9
:100B800008959130B9F028F0923029F19330A1F115
:100B900008954AB321E030E0B90102C0660F771F23
:100BA0008A95E2F7CB018095942F98239ABB9BB34B
:100BB00089234BC047B321E030E0B90102C0660F82
:100BC000771F8A95E2F7CB018095942F982397BBE6
:100BD00098B389234CC044B321E030E0B90102C08E
:100BE000660F771F8A95E2F7CB018095942F9823A3
:100BF00094BB95B389234DC041B321E030E0B901E6
:100C000002C0660F771F8A95E2F7CB018095942F7B
:100C1000982391BB92B389234EC09130C1F028F044
:100C2000923039F19330B9F108954AB321E030E0C0
:100C3000B90102C0660F771F8A95E2F7CB01962FA4
:100C4000909594239ABB9BB3892B8BBB089547B394
:100C500021E030E0B90102C0660F771F8A95E2F704
:100C6000CB01962F9095942397BB98B3892B88BB83
:100C7000089544B321E030E0B90102C0660F771F48
:100C80008A95E2F7CB01962F9095942394BB95B368
:100C9000892B85BB089541B321E030E0B90102C042
:100CA000660F771F8A95E2F7CB01962F90959423D4
:100CB00091BB92B3892B82BB08950F931F93CF935F
:100CC0000BE011E0C0E0F80161918F018C2F0E94D0
:100CD0007805CF5FC032B9F7CF911F910F9108957A
:100CE000282F2770869586958695813049F030F0BB
:100CF000823041F0833079F480B305C089B303C0FA
:100D000086B301C083B390E002C0959587952A957C
:100D1000E2F78170089580E00895982F9770869586
:100D200086958695813039F138F0823009F442C0D9
:100D3000833009F45DC00895662379F0613009F0CD
:100D400074C04BB321E030E0B90102C0660F771FD9
:100D50009A95E2F7CB01842B0CC04BB321E030E035
:100D6000B90102C0660F771F9A95E2F7CB01809513
:100D700084238BBB0895662379F0613009F055C058
:100D800048B321E030E0B90102C0660F771F9A95A1
:100D9000E2F7CB01842B0CC048B321E030E0B9016D
:100DA00002C0660F771F9A95E2F7CB0180958423E6
:100DB00088BB0895662371F06130B9F545B321E031
:100DC00030E0B90102C0660F771F9A95E2F7CB01B8
:100DD000842B0CC045B321E030E0B90102C0660F9E
:100DE000771F9A95E2F7CB018095842385BB089500
:100DF000662371F06130C9F442B321E030E0B901FB
:100E000002C0660F771F9A95E2F7CB01842B0CC0C6
:100E100042B321E030E0B90102C0660F771F9A9516
:100E2000E2F7CB018095842382BB0895813041F0A5
:100E300028F0823039F0833039F008956BBB089583
:100E400068BB089565BB089562BB0895A1E21A2EA0
:100E5000AA1BBB1BFD010DC0AA1FBB1FEE1FFF1F5E
:100E6000A217B307E407F50720F0A21BB30BE40BAE
:100E7000F50B661F771F881F991F1A9469F76095F5
:100E80007095809590959B01AC01BD01CF010895AF
:040E9000F894FFCF04
:100E940066726F6D2044454320746F202E2E2E0001
:100EA400313A44454320323A48455820333A42497E
:100EB4004E004445433A004845583A0042494E3AA8
:100EC4000057524F4E4720494E5055540066726F9A
:100ED4006D2048455820746F202E2E2E0066726FA8
:100EE4006D2042494E20746F202E2E2E0048656CD2
:100EF4006C6F2100434F4E56455254204E554D427F
:100F04004552530020202020202020202020202073
:100F140020202020202020202020202020202020CD
:100F24002020202020202020202000436F6E766582
:100F340072742066726F6D2E2E2E00010000000068
:100F4400000001000000000000000000000000009C
:100F540000000001000202020201001A1B1C1D0C09
:100F64000D0E0F373839413435364231323343634D
:040F7400303D4400C8
:00000001FF
